{
  "_format": "hh-sol-artifact-1",
  "contractName": "NFKeeTees",
  "sourceName": "contracts/NFKeeTees.sol",
  "abi": [
    {
      "inputs": [
        {
          "internalType": "address[]",
          "name": "_users",
          "type": "address[]"
        }
      ],
      "stateMutability": "nonpayable",
      "type": "constructor"
    },
    {
      "anonymous": false,
      "inputs": [
        {
          "indexed": true,
          "internalType": "address",
          "name": "owner",
          "type": "address"
        },
        {
          "indexed": true,
          "internalType": "address",
          "name": "approved",
          "type": "address"
        },
        {
          "indexed": true,
          "internalType": "uint256",
          "name": "tokenId",
          "type": "uint256"
        }
      ],
      "name": "Approval",
      "type": "event"
    },
    {
      "anonymous": false,
      "inputs": [
        {
          "indexed": true,
          "internalType": "address",
          "name": "owner",
          "type": "address"
        },
        {
          "indexed": true,
          "internalType": "address",
          "name": "operator",
          "type": "address"
        },
        {
          "indexed": false,
          "internalType": "bool",
          "name": "approved",
          "type": "bool"
        }
      ],
      "name": "ApprovalForAll",
      "type": "event"
    },
    {
      "anonymous": false,
      "inputs": [
        {
          "indexed": true,
          "internalType": "address",
          "name": "previousOwner",
          "type": "address"
        },
        {
          "indexed": true,
          "internalType": "address",
          "name": "newOwner",
          "type": "address"
        }
      ],
      "name": "OwnershipTransferred",
      "type": "event"
    },
    {
      "anonymous": false,
      "inputs": [
        {
          "indexed": false,
          "internalType": "address",
          "name": "account",
          "type": "address"
        }
      ],
      "name": "Paused",
      "type": "event"
    },
    {
      "anonymous": false,
      "inputs": [
        {
          "indexed": true,
          "internalType": "address",
          "name": "from",
          "type": "address"
        },
        {
          "indexed": true,
          "internalType": "address",
          "name": "to",
          "type": "address"
        },
        {
          "indexed": true,
          "internalType": "uint256",
          "name": "tokenId",
          "type": "uint256"
        }
      ],
      "name": "Transfer",
      "type": "event"
    },
    {
      "anonymous": false,
      "inputs": [
        {
          "indexed": false,
          "internalType": "address",
          "name": "account",
          "type": "address"
        }
      ],
      "name": "Unpaused",
      "type": "event"
    },
    {
      "inputs": [
        {
          "internalType": "address",
          "name": "to",
          "type": "address"
        },
        {
          "internalType": "uint256",
          "name": "tokenId",
          "type": "uint256"
        }
      ],
      "name": "approve",
      "outputs": [],
      "stateMutability": "nonpayable",
      "type": "function"
    },
    {
      "inputs": [
        {
          "internalType": "address",
          "name": "owner",
          "type": "address"
        }
      ],
      "name": "balanceOf",
      "outputs": [
        {
          "internalType": "uint256",
          "name": "",
          "type": "uint256"
        }
      ],
      "stateMutability": "view",
      "type": "function"
    },
    {
      "inputs": [
        {
          "internalType": "uint256",
          "name": "tokenId",
          "type": "uint256"
        }
      ],
      "name": "getApproved",
      "outputs": [
        {
          "internalType": "address",
          "name": "",
          "type": "address"
        }
      ],
      "stateMutability": "view",
      "type": "function"
    },
    {
      "inputs": [
        {
          "internalType": "address",
          "name": "owner",
          "type": "address"
        },
        {
          "internalType": "address",
          "name": "operator",
          "type": "address"
        }
      ],
      "name": "isApprovedForAll",
      "outputs": [
        {
          "internalType": "bool",
          "name": "",
          "type": "bool"
        }
      ],
      "stateMutability": "view",
      "type": "function"
    },
    {
      "inputs": [],
      "name": "name",
      "outputs": [
        {
          "internalType": "string",
          "name": "",
          "type": "string"
        }
      ],
      "stateMutability": "view",
      "type": "function"
    },
    {
      "inputs": [],
      "name": "owner",
      "outputs": [
        {
          "internalType": "address",
          "name": "",
          "type": "address"
        }
      ],
      "stateMutability": "view",
      "type": "function"
    },
    {
      "inputs": [
        {
          "internalType": "uint256",
          "name": "tokenId",
          "type": "uint256"
        }
      ],
      "name": "ownerOf",
      "outputs": [
        {
          "internalType": "address",
          "name": "",
          "type": "address"
        }
      ],
      "stateMutability": "view",
      "type": "function"
    },
    {
      "inputs": [],
      "name": "pause",
      "outputs": [],
      "stateMutability": "nonpayable",
      "type": "function"
    },
    {
      "inputs": [],
      "name": "paused",
      "outputs": [
        {
          "internalType": "bool",
          "name": "",
          "type": "bool"
        }
      ],
      "stateMutability": "view",
      "type": "function"
    },
    {
      "inputs": [],
      "name": "renounceOwnership",
      "outputs": [],
      "stateMutability": "nonpayable",
      "type": "function"
    },
    {
      "inputs": [],
      "name": "resetUnlockTimer",
      "outputs": [],
      "stateMutability": "nonpayable",
      "type": "function"
    },
    {
      "inputs": [
        {
          "internalType": "address[]",
          "name": "_users",
          "type": "address[]"
        }
      ],
      "name": "resetWhitelist",
      "outputs": [],
      "stateMutability": "nonpayable",
      "type": "function"
    },
    {
      "inputs": [
        {
          "internalType": "uint256",
          "name": "tokenId",
          "type": "uint256"
        }
      ],
      "name": "safeMint",
      "outputs": [],
      "stateMutability": "nonpayable",
      "type": "function"
    },
    {
      "inputs": [
        {
          "internalType": "address",
          "name": "from",
          "type": "address"
        },
        {
          "internalType": "address",
          "name": "to",
          "type": "address"
        },
        {
          "internalType": "uint256",
          "name": "tokenId",
          "type": "uint256"
        }
      ],
      "name": "safeTransferFrom",
      "outputs": [],
      "stateMutability": "nonpayable",
      "type": "function"
    },
    {
      "inputs": [
        {
          "internalType": "address",
          "name": "from",
          "type": "address"
        },
        {
          "internalType": "address",
          "name": "to",
          "type": "address"
        },
        {
          "internalType": "uint256",
          "name": "tokenId",
          "type": "uint256"
        },
        {
          "internalType": "bytes",
          "name": "data",
          "type": "bytes"
        }
      ],
      "name": "safeTransferFrom",
      "outputs": [],
      "stateMutability": "nonpayable",
      "type": "function"
    },
    {
      "inputs": [
        {
          "internalType": "address",
          "name": "operator",
          "type": "address"
        },
        {
          "internalType": "bool",
          "name": "approved",
          "type": "bool"
        }
      ],
      "name": "setApprovalForAll",
      "outputs": [],
      "stateMutability": "nonpayable",
      "type": "function"
    },
    {
      "inputs": [
        {
          "internalType": "bytes4",
          "name": "interfaceId",
          "type": "bytes4"
        }
      ],
      "name": "supportsInterface",
      "outputs": [
        {
          "internalType": "bool",
          "name": "",
          "type": "bool"
        }
      ],
      "stateMutability": "view",
      "type": "function"
    },
    {
      "inputs": [],
      "name": "symbol",
      "outputs": [
        {
          "internalType": "string",
          "name": "",
          "type": "string"
        }
      ],
      "stateMutability": "view",
      "type": "function"
    },
    {
      "inputs": [
        {
          "internalType": "uint256",
          "name": "index",
          "type": "uint256"
        }
      ],
      "name": "tokenByIndex",
      "outputs": [
        {
          "internalType": "uint256",
          "name": "",
          "type": "uint256"
        }
      ],
      "stateMutability": "view",
      "type": "function"
    },
    {
      "inputs": [
        {
          "internalType": "address",
          "name": "owner",
          "type": "address"
        },
        {
          "internalType": "uint256",
          "name": "index",
          "type": "uint256"
        }
      ],
      "name": "tokenOfOwnerByIndex",
      "outputs": [
        {
          "internalType": "uint256",
          "name": "",
          "type": "uint256"
        }
      ],
      "stateMutability": "view",
      "type": "function"
    },
    {
      "inputs": [
        {
          "internalType": "uint256",
          "name": "tokenId",
          "type": "uint256"
        }
      ],
      "name": "tokenURI",
      "outputs": [
        {
          "internalType": "string",
          "name": "",
          "type": "string"
        }
      ],
      "stateMutability": "view",
      "type": "function"
    },
    {
      "inputs": [],
      "name": "totalSupply",
      "outputs": [
        {
          "internalType": "uint256",
          "name": "",
          "type": "uint256"
        }
      ],
      "stateMutability": "view",
      "type": "function"
    },
    {
      "inputs": [
        {
          "internalType": "address",
          "name": "from",
          "type": "address"
        },
        {
          "internalType": "address",
          "name": "to",
          "type": "address"
        },
        {
          "internalType": "uint256",
          "name": "tokenId",
          "type": "uint256"
        }
      ],
      "name": "transferFrom",
      "outputs": [],
      "stateMutability": "nonpayable",
      "type": "function"
    },
    {
      "inputs": [
        {
          "internalType": "address",
          "name": "newOwner",
          "type": "address"
        }
      ],
      "name": "transferOwnership",
      "outputs": [],
      "stateMutability": "nonpayable",
      "type": "function"
    },
    {
      "inputs": [],
      "name": "unpause",
      "outputs": [],
      "stateMutability": "nonpayable",
      "type": "function"
    },
    {
      "inputs": [
        {
          "internalType": "address",
          "name": "",
          "type": "address"
        }
      ],
      "name": "userStatus",
      "outputs": [
        {
          "internalType": "uint256",
          "name": "",
          "type": "uint256"
        }
      ],
      "stateMutability": "view",
      "type": "function"
    }
  ],
  "bytecode": "0x60806040523480156200001157600080fd5b5060405162004a5638038062004a568339818101604052810190620000379190620005cf565b6040518060400160405280600981526020017f4e464b65655465657300000000000000000000000000000000000000000000008152506040518060400160405280600481526020017f4e464b54000000000000000000000000000000000000000000000000000000008152508160009080519060200190620000bb929190620002a2565b508060019080519060200190620000d4929190620002a2565b5050506000600b60006101000a81548160ff0219169083151502179055506200011262000106620001d460201b60201c565b620001dc60201b60201c565b80600d90805190602001906200012a92919062000333565b50600042905060008251905060005b81811015620001ca5782600c60008684815181106200015d576200015c62000620565b5b602002602001015173ffffffffffffffffffffffffffffffffffffffff1673ffffffffffffffffffffffffffffffffffffffff16815260200190815260200160002081905550603c83620001b2919062000688565b92508080620001c190620006e5565b91505062000139565b5050505062000798565b600033905090565b6000600b60019054906101000a900473ffffffffffffffffffffffffffffffffffffffff16905081600b60016101000a81548173ffffffffffffffffffffffffffffffffffffffff021916908373ffffffffffffffffffffffffffffffffffffffff1602179055508173ffffffffffffffffffffffffffffffffffffffff168173ffffffffffffffffffffffffffffffffffffffff167f8be0079c531659141344cd1fd0a4f28419497f9722a3daafe3b4186f6b6457e060405160405180910390a35050565b828054620002b09062000762565b90600052602060002090601f016020900481019282620002d4576000855562000320565b82601f10620002ef57805160ff191683800117855562000320565b8280016001018555821562000320579182015b828111156200031f57825182559160200191906001019062000302565b5b5090506200032f9190620003c2565b5090565b828054828255906000526020600020908101928215620003af579160200282015b82811115620003ae5782518260006101000a81548173ffffffffffffffffffffffffffffffffffffffff021916908373ffffffffffffffffffffffffffffffffffffffff1602179055509160200191906001019062000354565b5b509050620003be9190620003c2565b5090565b5b80821115620003dd576000816000905550600101620003c3565b5090565b6000604051905090565b600080fd5b600080fd5b600080fd5b6000601f19601f8301169050919050565b7f4e487b7100000000000000000000000000000000000000000000000000000000600052604160045260246000fd5b6200044582620003fa565b810181811067ffffffffffffffff821117156200046757620004666200040b565b5b80604052505050565b60006200047c620003e1565b90506200048a82826200043a565b919050565b600067ffffffffffffffff821115620004ad57620004ac6200040b565b5b602082029050602081019050919050565b600080fd5b600073ffffffffffffffffffffffffffffffffffffffff82169050919050565b6000620004f082620004c3565b9050919050565b6200050281620004e3565b81146200050e57600080fd5b50565b6000815190506200052281620004f7565b92915050565b60006200053f62000539846200048f565b62000470565b90508083825260208201905060208402830185811115620005655762000564620004be565b5b835b818110156200059257806200057d888262000511565b84526020840193505060208101905062000567565b5050509392505050565b600082601f830112620005b457620005b3620003f5565b5b8151620005c684826020860162000528565b91505092915050565b600060208284031215620005e857620005e7620003eb565b5b600082015167ffffffffffffffff811115620006095762000608620003f0565b5b62000617848285016200059c565b91505092915050565b7f4e487b7100000000000000000000000000000000000000000000000000000000600052603260045260246000fd5b6000819050919050565b7f4e487b7100000000000000000000000000000000000000000000000000000000600052601160045260246000fd5b600062000695826200064f565b9150620006a2836200064f565b9250827fffffffffffffffffffffffffffffffffffffffffffffffffffffffffffffffff03821115620006da57620006d962000659565b5b828201905092915050565b6000620006f2826200064f565b91507fffffffffffffffffffffffffffffffffffffffffffffffffffffffffffffffff82141562000728576200072762000659565b5b600182019050919050565b7f4e487b7100000000000000000000000000000000000000000000000000000000600052602260045260246000fd5b600060028204905060018216806200077b57607f821691505b6020821081141562000792576200079162000733565b5b50919050565b6142ae80620007a86000396000f3fe608060405234801561001057600080fd5b506004361061018e5760003560e01c80636352211e116100de578063a22cb46511610097578063e74cfead11610071578063e74cfead1461046f578063e985e9c51461048b578063ec26d507146104bb578063f2fde38b146104c55761018e565b8063a22cb46514610407578063b88d4fde14610423578063c87b56dd1461043f5761018e565b80636352211e1461035757806370a0823114610387578063715018a6146103b75780638456cb59146103c15780638da5cb5b146103cb57806395d89b41146103e95761018e565b806323b872dd1161014b5780633f4ba83a116101255780633f4ba83a146102e357806342842e0e146102ed5780634f6ccce7146103095780635c975abb146103395761018e565b806323b872dd1461027b5780632f745c591461029757806331c864e8146102c75761018e565b806301ffc9a71461019357806306fdde03146101c3578063081812fc146101e1578063095ea7b31461021157806318160ddd1461022d578063225d29a11461024b575b600080fd5b6101ad60048036038101906101a89190612cb0565b6104e1565b6040516101ba9190612cf8565b60405180910390f35b6101cb6104f3565b6040516101d89190612dac565b60405180910390f35b6101fb60048036038101906101f69190612e04565b610585565b6040516102089190612e72565b60405180910390f35b61022b60048036038101906102269190612eb9565b6105cb565b005b6102356106e3565b6040516102429190612f08565b60405180910390f35b61026560048036038101906102609190612f23565b6106f0565b6040516102729190612f08565b60405180910390f35b61029560048036038101906102909190612f50565b610708565b005b6102b160048036038101906102ac9190612eb9565b610768565b6040516102be9190612f08565b60405180910390f35b6102e160048036038101906102dc9190612e04565b61080d565b005b6102eb610a8a565b005b61030760048036038101906103029190612f50565b610a9c565b005b610323600480360381019061031e9190612e04565b610abc565b6040516103309190612f08565b60405180910390f35b610341610b2d565b60405161034e9190612cf8565b60405180910390f35b610371600480360381019061036c9190612e04565b610b44565b60405161037e9190612e72565b60405180910390f35b6103a1600480360381019061039c9190612f23565b610bcb565b6040516103ae9190612f08565b60405180910390f35b6103bf610c83565b005b6103c9610c97565b005b6103d3610ca9565b6040516103e09190612e72565b60405180910390f35b6103f1610cd3565b6040516103fe9190612dac565b60405180910390f35b610421600480360381019061041c9190612fcf565b610d65565b005b61043d60048036038101906104389190613144565b610d7b565b005b61045960048036038101906104549190612e04565b610ddd565b6040516104669190612dac565b60405180910390f35b6104896004803603810190610484919061328f565b610def565b005b6104a560048036038101906104a091906132d8565b610fc0565b6040516104b29190612cf8565b60405180910390f35b6104c3611054565b005b6104df60048036038101906104da9190612f23565b611117565b005b60006104ec8261119b565b9050919050565b60606000805461050290613347565b80601f016020809104026020016040519081016040528092919081815260200182805461052e90613347565b801561057b5780601f106105505761010080835404028352916020019161057b565b820191906000526020600020905b81548152906001019060200180831161055e57829003601f168201915b5050505050905090565b600061059082611215565b6004600083815260200190815260200160002060009054906101000a900473ffffffffffffffffffffffffffffffffffffffff169050919050565b60006105d682610b44565b90508073ffffffffffffffffffffffffffffffffffffffff168373ffffffffffffffffffffffffffffffffffffffff161415610647576040517f08c379a000000000000000000000000000000000000000000000000000000000815260040161063e906133eb565b60405180910390fd5b8073ffffffffffffffffffffffffffffffffffffffff16610666611260565b73ffffffffffffffffffffffffffffffffffffffff16148061069557506106948161068f611260565b610fc0565b5b6106d4576040517f08c379a00000000000000000000000000000000000000000000000000000000081526004016106cb9061347d565b60405180910390fd5b6106de8383611268565b505050565b6000600880549050905090565b600c6020528060005260406000206000915090505481565b610719610713611260565b82611321565b610758576040517f08c379a000000000000000000000000000000000000000000000000000000000815260040161074f9061350f565b60405180910390fd5b6107638383836113b6565b505050565b600061077383610bcb565b82106107b4576040517f08c379a00000000000000000000000000000000000000000000000000000000081526004016107ab906135a1565b60405180910390fd5b600660008473ffffffffffffffffffffffffffffffffffffffff1673ffffffffffffffffffffffffffffffffffffffff168152602001908152602001600020600083815260200190815260200160002054905092915050565b60008114156108235761081e611054565b610a87565b600073ffffffffffffffffffffffffffffffffffffffff16610844826116b0565b73ffffffffffffffffffffffffffffffffffffffff161461089a576040517f08c379a00000000000000000000000000000000000000000000000000000000081526004016108919061360d565b60405180910390fd5b600d811080156108aa5750600081115b6108e9576040517f08c379a00000000000000000000000000000000000000000000000000000000081526004016108e090613679565b60405180910390fd5b6000600c60003373ffffffffffffffffffffffffffffffffffffffff1673ffffffffffffffffffffffffffffffffffffffff16815260200190815260200160002054905060018111610970576040517f08c379a0000000000000000000000000000000000000000000000000000000008152600401610967906136e5565b60405180910390fd5b428111156109b3576040517f08c379a00000000000000000000000000000000000000000000000000000000081526004016109aa90613751565b60405180910390fd5b6001600c60003373ffffffffffffffffffffffffffffffffffffffff1673ffffffffffffffffffffffffffffffffffffffff16815260200190815260200160002081905550610a0233836116ed565b33600e600084815260200190815260200160002060006101000a81548173ffffffffffffffffffffffffffffffffffffffff021916908373ffffffffffffffffffffffffffffffffffffffff160217905550610a8582610a618461170b565b604051602001610a7191906137f9565b6040516020818303038152906040526117e3565b505b50565b610a92611857565b610a9a6118d5565b565b610ab783838360405180602001604052806000815250610d7b565b505050565b6000610ac66106e3565b8210610b07576040517f08c379a0000000000000000000000000000000000000000000000000000000008152600401610afe9061388d565b60405180910390fd5b60088281548110610b1b57610b1a6138ad565b5b90600052602060002001549050919050565b6000600b60009054906101000a900460ff16905090565b600080610b50836116b0565b9050600073ffffffffffffffffffffffffffffffffffffffff168173ffffffffffffffffffffffffffffffffffffffff161415610bc2576040517f08c379a0000000000000000000000000000000000000000000000000000000008152600401610bb990613928565b60405180910390fd5b80915050919050565b60008073ffffffffffffffffffffffffffffffffffffffff168273ffffffffffffffffffffffffffffffffffffffff161415610c3c576040517f08c379a0000000000000000000000000000000000000000000000000000000008152600401610c33906139ba565b60405180910390fd5b600360008373ffffffffffffffffffffffffffffffffffffffff1673ffffffffffffffffffffffffffffffffffffffff168152602001908152602001600020549050919050565b610c8b611857565b610c956000611938565b565b610c9f611857565b610ca76119fe565b565b6000600b60019054906101000a900473ffffffffffffffffffffffffffffffffffffffff16905090565b606060018054610ce290613347565b80601f0160208091040260200160405190810160405280929190818152602001828054610d0e90613347565b8015610d5b5780601f10610d3057610100808354040283529160200191610d5b565b820191906000526020600020905b815481529060010190602001808311610d3e57829003601f168201915b5050505050905090565b610d77610d70611260565b8383611a61565b5050565b610d8c610d86611260565b83611321565b610dcb576040517f08c379a0000000000000000000000000000000000000000000000000000000008152600401610dc29061350f565b60405180910390fd5b610dd784848484611bce565b50505050565b6060610de882611c2a565b9050919050565b60005b600d80549050811015610e95576000600c6000600d8481548110610e1957610e186138ad565b5b9060005260206000200160009054906101000a900473ffffffffffffffffffffffffffffffffffffffff1673ffffffffffffffffffffffffffffffffffffffff1673ffffffffffffffffffffffffffffffffffffffff168152602001908152602001600020819055508080610e8d90613a09565b915050610df2565b506000600190505b600d811015610f0c576000600e600083815260200190815260200160002060006101000a81548173ffffffffffffffffffffffffffffffffffffffff021916908373ffffffffffffffffffffffffffffffffffffffff1602179055508080610f0490613a09565b915050610e9d565b5080600d9080519060200190610f23929190612b17565b50600042905060008251905060005b81811015610fba5782600c6000868481518110610f5257610f516138ad565b5b602002602001015173ffffffffffffffffffffffffffffffffffffffff1673ffffffffffffffffffffffffffffffffffffffff16815260200190815260200160002081905550603c83610fa59190613a52565b92508080610fb290613a09565b915050610f32565b50505050565b6000600560008473ffffffffffffffffffffffffffffffffffffffff1673ffffffffffffffffffffffffffffffffffffffff16815260200190815260200160002060008373ffffffffffffffffffffffffffffffffffffffff1673ffffffffffffffffffffffffffffffffffffffff16815260200190815260200160002060009054906101000a900460ff16905092915050565b60004290506000600d80549050905060005b818110156111125782600c6000600d8481548110611087576110866138ad565b5b9060005260206000200160009054906101000a900473ffffffffffffffffffffffffffffffffffffffff1673ffffffffffffffffffffffffffffffffffffffff1673ffffffffffffffffffffffffffffffffffffffff16815260200190815260200160002081905550603c836110fd9190613a52565b9250808061110a90613a09565b915050611066565b505050565b61111f611857565b600073ffffffffffffffffffffffffffffffffffffffff168173ffffffffffffffffffffffffffffffffffffffff16141561118f576040517f08c379a000000000000000000000000000000000000000000000000000000000815260040161118690613b1a565b60405180910390fd5b61119881611938565b50565b60007f780e9d63000000000000000000000000000000000000000000000000000000007bffffffffffffffffffffffffffffffffffffffffffffffffffffffff1916827bffffffffffffffffffffffffffffffffffffffffffffffffffffffff1916148061120e575061120d82611d3d565b5b9050919050565b61121e81611e1f565b61125d576040517f08c379a000000000000000000000000000000000000000000000000000000000815260040161125490613928565b60405180910390fd5b50565b600033905090565b816004600083815260200190815260200160002060006101000a81548173ffffffffffffffffffffffffffffffffffffffff021916908373ffffffffffffffffffffffffffffffffffffffff160217905550808273ffffffffffffffffffffffffffffffffffffffff166112db83610b44565b73ffffffffffffffffffffffffffffffffffffffff167f8c5be1e5ebec7d5bd14f71427d1e84f3dd0314c0f7b2291e5b200ac8c7c3b92560405160405180910390a45050565b60008061132d83610b44565b90508073ffffffffffffffffffffffffffffffffffffffff168473ffffffffffffffffffffffffffffffffffffffff16148061136f575061136e8185610fc0565b5b806113ad57508373ffffffffffffffffffffffffffffffffffffffff1661139584610585565b73ffffffffffffffffffffffffffffffffffffffff16145b91505092915050565b8273ffffffffffffffffffffffffffffffffffffffff166113d682610b44565b73ffffffffffffffffffffffffffffffffffffffff161461142c576040517f08c379a000000000000000000000000000000000000000000000000000000000815260040161142390613bac565b60405180910390fd5b600073ffffffffffffffffffffffffffffffffffffffff168273ffffffffffffffffffffffffffffffffffffffff16141561149c576040517f08c379a000000000000000000000000000000000000000000000000000000000815260040161149390613c3e565b60405180910390fd5b6114a98383836001611e60565b8273ffffffffffffffffffffffffffffffffffffffff166114c982610b44565b73ffffffffffffffffffffffffffffffffffffffff161461151f576040517f08c379a000000000000000000000000000000000000000000000000000000000815260040161151690613bac565b60405180910390fd5b6004600082815260200190815260200160002060006101000a81549073ffffffffffffffffffffffffffffffffffffffff02191690556001600360008573ffffffffffffffffffffffffffffffffffffffff1673ffffffffffffffffffffffffffffffffffffffff168152602001908152602001600020600082825403925050819055506001600360008473ffffffffffffffffffffffffffffffffffffffff1673ffffffffffffffffffffffffffffffffffffffff16815260200190815260200160002060008282540192505081905550816002600083815260200190815260200160002060006101000a81548173ffffffffffffffffffffffffffffffffffffffff021916908373ffffffffffffffffffffffffffffffffffffffff160217905550808273ffffffffffffffffffffffffffffffffffffffff168473ffffffffffffffffffffffffffffffffffffffff167fddf252ad1be2c89b69c2b068fc378daa952ba7f163c4a11628f55a4df523b3ef60405160405180910390a46116ab8383836001611e7a565b505050565b6000600e600083815260200190815260200160002060009054906101000a900473ffffffffffffffffffffffffffffffffffffffff169050919050565b611707828260405180602001604052806000815250611e80565b5050565b60606000600161171a84611edb565b01905060008167ffffffffffffffff81111561173957611738613019565b5b6040519080825280601f01601f19166020018201604052801561176b5781602001600182028036833780820191505090505b509050600082602001820190505b6001156117d8578080600190039150507f3031323334353637383961626364656600000000000000000000000000000000600a86061a8153600a85816117c2576117c1613c5e565b5b04945060008514156117d3576117d8565b611779565b819350505050919050565b6117ec82611e1f565b61182b576040517f08c379a000000000000000000000000000000000000000000000000000000000815260040161182290613cff565b60405180910390fd5b80600a60008481526020019081526020016000209080519060200190611852929190612ba1565b505050565b61185f611260565b73ffffffffffffffffffffffffffffffffffffffff1661187d610ca9565b73ffffffffffffffffffffffffffffffffffffffff16146118d3576040517f08c379a00000000000000000000000000000000000000000000000000000000081526004016118ca90613d6b565b60405180910390fd5b565b6118dd61202e565b6000600b60006101000a81548160ff0219169083151502179055507f5db9ee0a495bf2e6ff9c91a7834c1ba4fdd244a5e8aa4e537bd38aeae4b073aa611921611260565b60405161192e9190612e72565b60405180910390a1565b6000600b60019054906101000a900473ffffffffffffffffffffffffffffffffffffffff16905081600b60016101000a81548173ffffffffffffffffffffffffffffffffffffffff021916908373ffffffffffffffffffffffffffffffffffffffff1602179055508173ffffffffffffffffffffffffffffffffffffffff168173ffffffffffffffffffffffffffffffffffffffff167f8be0079c531659141344cd1fd0a4f28419497f9722a3daafe3b4186f6b6457e060405160405180910390a35050565b611a06612077565b6001600b60006101000a81548160ff0219169083151502179055507f62e78cea01bee320cd4e420270b5ea74000d11b0c9f74754ebdbfc544b05a258611a4a611260565b604051611a579190612e72565b60405180910390a1565b8173ffffffffffffffffffffffffffffffffffffffff168373ffffffffffffffffffffffffffffffffffffffff161415611ad0576040517f08c379a0000000000000000000000000000000000000000000000000000000008152600401611ac790613dd7565b60405180910390fd5b80600560008573ffffffffffffffffffffffffffffffffffffffff1673ffffffffffffffffffffffffffffffffffffffff16815260200190815260200160002060008473ffffffffffffffffffffffffffffffffffffffff1673ffffffffffffffffffffffffffffffffffffffff16815260200190815260200160002060006101000a81548160ff0219169083151502179055508173ffffffffffffffffffffffffffffffffffffffff168373ffffffffffffffffffffffffffffffffffffffff167f17307eab39ab6107e8899845ad3d59bd9653f200f220920489ca2b5937696c3183604051611bc19190612cf8565b60405180910390a3505050565b611bd98484846113b6565b611be5848484846120c1565b611c24576040517f08c379a0000000000000000000000000000000000000000000000000000000008152600401611c1b90613e69565b60405180910390fd5b50505050565b6060611c3582611215565b6000600a60008481526020019081526020016000208054611c5590613347565b80601f0160208091040260200160405190810160405280929190818152602001828054611c8190613347565b8015611cce5780601f10611ca357610100808354040283529160200191611cce565b820191906000526020600020905b815481529060010190602001808311611cb157829003601f168201915b505050505090506000611cdf612258565b9050600081511415611cf5578192505050611d38565b600082511115611d2a578082604051602001611d12929190613e89565b60405160208183030381529060405292505050611d38565b611d3384612278565b925050505b919050565b60007f80ac58cd000000000000000000000000000000000000000000000000000000007bffffffffffffffffffffffffffffffffffffffffffffffffffffffff1916827bffffffffffffffffffffffffffffffffffffffffffffffffffffffff19161480611e0857507f5b5e139f000000000000000000000000000000000000000000000000000000007bffffffffffffffffffffffffffffffffffffffffffffffffffffffff1916827bffffffffffffffffffffffffffffffffffffffffffffffffffffffff1916145b80611e185750611e17826122e0565b5b9050919050565b60008073ffffffffffffffffffffffffffffffffffffffff16611e41836116b0565b73ffffffffffffffffffffffffffffffffffffffff1614159050919050565b611e68612077565b611e748484848461234a565b50505050565b50505050565b611e8a83836124aa565b611e9760008484846120c1565b611ed6576040517f08c379a0000000000000000000000000000000000000000000000000000000008152600401611ecd90613e69565b60405180910390fd5b505050565b600080600090507a184f03e93ff9f4daa797ed6e38ed64bf6a1f0100000000000000008310611f39577a184f03e93ff9f4daa797ed6e38ed64bf6a1f0100000000000000008381611f2f57611f2e613c5e565b5b0492506040810190505b6d04ee2d6d415b85acef81000000008310611f76576d04ee2d6d415b85acef81000000008381611f6c57611f6b613c5e565b5b0492506020810190505b662386f26fc100008310611fa557662386f26fc100008381611f9b57611f9a613c5e565b5b0492506010810190505b6305f5e1008310611fce576305f5e1008381611fc457611fc3613c5e565b5b0492506008810190505b6127108310611ff3576127108381611fe957611fe8613c5e565b5b0492506004810190505b60648310612016576064838161200c5761200b613c5e565b5b0492506002810190505b600a8310612025576001810190505b80915050919050565b612036610b2d565b612075576040517f08c379a000000000000000000000000000000000000000000000000000000000815260040161206c90613ef9565b60405180910390fd5b565b61207f610b2d565b156120bf576040517f08c379a00000000000000000000000000000000000000000000000000000000081526004016120b690613f65565b60405180910390fd5b565b60006120e28473ffffffffffffffffffffffffffffffffffffffff166126c8565b1561224b578373ffffffffffffffffffffffffffffffffffffffff1663150b7a0261210b611260565b8786866040518563ffffffff1660e01b815260040161212d9493929190613fda565b602060405180830381600087803b15801561214757600080fd5b505af192505050801561217857506040513d601f19601f82011682018060405250810190612175919061403b565b60015b6121fb573d80600081146121a8576040519150601f19603f3d011682016040523d82523d6000602084013e6121ad565b606091505b506000815114156121f3576040517f08c379a00000000000000000000000000000000000000000000000000000000081526004016121ea90613e69565b60405180910390fd5b805181602001fd5b63150b7a0260e01b7bffffffffffffffffffffffffffffffffffffffffffffffffffffffff1916817bffffffffffffffffffffffffffffffffffffffffffffffffffffffff191614915050612250565b600190505b949350505050565b606060405180608001604052806043815260200161423660439139905090565b606061228382611215565b600061228d612258565b905060008151116122ad57604051806020016040528060008152506122d8565b806122b78461170b565b6040516020016122c8929190613e89565b6040516020818303038152906040525b915050919050565b60007f01ffc9a7000000000000000000000000000000000000000000000000000000007bffffffffffffffffffffffffffffffffffffffffffffffffffffffff1916827bffffffffffffffffffffffffffffffffffffffffffffffffffffffff1916149050919050565b612356848484846126eb565b600181111561239a576040517f08c379a0000000000000000000000000000000000000000000000000000000008152600401612391906140da565b60405180910390fd5b6000829050600073ffffffffffffffffffffffffffffffffffffffff168573ffffffffffffffffffffffffffffffffffffffff1614156123e2576123dd81612811565b612421565b8373ffffffffffffffffffffffffffffffffffffffff168573ffffffffffffffffffffffffffffffffffffffff16146124205761241f858261285a565b5b5b600073ffffffffffffffffffffffffffffffffffffffff168473ffffffffffffffffffffffffffffffffffffffff1614156124645761245f816129c7565b6124a3565b8473ffffffffffffffffffffffffffffffffffffffff168473ffffffffffffffffffffffffffffffffffffffff16146124a2576124a18482612a98565b5b5b5050505050565b600073ffffffffffffffffffffffffffffffffffffffff168273ffffffffffffffffffffffffffffffffffffffff16141561251a576040517f08c379a000000000000000000000000000000000000000000000000000000000815260040161251190614146565b60405180910390fd5b61252381611e1f565b15612563576040517f08c379a000000000000000000000000000000000000000000000000000000000815260040161255a906141b2565b60405180910390fd5b612571600083836001611e60565b61257a81611e1f565b156125ba576040517f08c379a00000000000000000000000000000000000000000000000000000000081526004016125b1906141b2565b60405180910390fd5b6001600360008473ffffffffffffffffffffffffffffffffffffffff1673ffffffffffffffffffffffffffffffffffffffff16815260200190815260200160002060008282540192505081905550816002600083815260200190815260200160002060006101000a81548173ffffffffffffffffffffffffffffffffffffffff021916908373ffffffffffffffffffffffffffffffffffffffff160217905550808273ffffffffffffffffffffffffffffffffffffffff16600073ffffffffffffffffffffffffffffffffffffffff167fddf252ad1be2c89b69c2b068fc378daa952ba7f163c4a11628f55a4df523b3ef60405160405180910390a46126c4600083836001611e7a565b5050565b6000808273ffffffffffffffffffffffffffffffffffffffff163b119050919050565b600181111561280b57600073ffffffffffffffffffffffffffffffffffffffff168473ffffffffffffffffffffffffffffffffffffffff161461277f5780600360008673ffffffffffffffffffffffffffffffffffffffff1673ffffffffffffffffffffffffffffffffffffffff168152602001908152602001600020600082825461277791906141d2565b925050819055505b600073ffffffffffffffffffffffffffffffffffffffff168373ffffffffffffffffffffffffffffffffffffffff161461280a5780600360008573ffffffffffffffffffffffffffffffffffffffff1673ffffffffffffffffffffffffffffffffffffffff16815260200190815260200160002060008282546128029190613a52565b925050819055505b5b50505050565b6008805490506009600083815260200190815260200160002081905550600881908060018154018082558091505060019003906000526020600020016000909190919091505550565b6000600161286784610bcb565b61287191906141d2565b9050600060076000848152602001908152602001600020549050818114612956576000600660008673ffffffffffffffffffffffffffffffffffffffff1673ffffffffffffffffffffffffffffffffffffffff168152602001908152602001600020600084815260200190815260200160002054905080600660008773ffffffffffffffffffffffffffffffffffffffff1673ffffffffffffffffffffffffffffffffffffffff168152602001908152602001600020600084815260200190815260200160002081905550816007600083815260200190815260200160002081905550505b6007600084815260200190815260200160002060009055600660008573ffffffffffffffffffffffffffffffffffffffff1673ffffffffffffffffffffffffffffffffffffffff16815260200190815260200160002060008381526020019081526020016000206000905550505050565b600060016008805490506129db91906141d2565b9050600060096000848152602001908152602001600020549050600060088381548110612a0b57612a0a6138ad565b5b906000526020600020015490508060088381548110612a2d57612a2c6138ad565b5b906000526020600020018190555081600960008381526020019081526020016000208190555060096000858152602001908152602001600020600090556008805480612a7c57612a7b614206565b5b6001900381819060005260206000200160009055905550505050565b6000612aa383610bcb565b905081600660008573ffffffffffffffffffffffffffffffffffffffff1673ffffffffffffffffffffffffffffffffffffffff168152602001908152602001600020600083815260200190815260200160002081905550806007600084815260200190815260200160002081905550505050565b828054828255906000526020600020908101928215612b90579160200282015b82811115612b8f5782518260006101000a81548173ffffffffffffffffffffffffffffffffffffffff021916908373ffffffffffffffffffffffffffffffffffffffff16021790555091602001919060010190612b37565b5b509050612b9d9190612c27565b5090565b828054612bad90613347565b90600052602060002090601f016020900481019282612bcf5760008555612c16565b82601f10612be857805160ff1916838001178555612c16565b82800160010185558215612c16579182015b82811115612c15578251825591602001919060010190612bfa565b5b509050612c239190612c27565b5090565b5b80821115612c40576000816000905550600101612c28565b5090565b6000604051905090565b600080fd5b600080fd5b60007fffffffff0000000000000000000000000000000000000000000000000000000082169050919050565b612c8d81612c58565b8114612c9857600080fd5b50565b600081359050612caa81612c84565b92915050565b600060208284031215612cc657612cc5612c4e565b5b6000612cd484828501612c9b565b91505092915050565b60008115159050919050565b612cf281612cdd565b82525050565b6000602082019050612d0d6000830184612ce9565b92915050565b600081519050919050565b600082825260208201905092915050565b60005b83811015612d4d578082015181840152602081019050612d32565b83811115612d5c576000848401525b50505050565b6000601f19601f8301169050919050565b6000612d7e82612d13565b612d888185612d1e565b9350612d98818560208601612d2f565b612da181612d62565b840191505092915050565b60006020820190508181036000830152612dc68184612d73565b905092915050565b6000819050919050565b612de181612dce565b8114612dec57600080fd5b50565b600081359050612dfe81612dd8565b92915050565b600060208284031215612e1a57612e19612c4e565b5b6000612e2884828501612def565b91505092915050565b600073ffffffffffffffffffffffffffffffffffffffff82169050919050565b6000612e5c82612e31565b9050919050565b612e6c81612e51565b82525050565b6000602082019050612e876000830184612e63565b92915050565b612e9681612e51565b8114612ea157600080fd5b50565b600081359050612eb381612e8d565b92915050565b60008060408385031215612ed057612ecf612c4e565b5b6000612ede85828601612ea4565b9250506020612eef85828601612def565b9150509250929050565b612f0281612dce565b82525050565b6000602082019050612f1d6000830184612ef9565b92915050565b600060208284031215612f3957612f38612c4e565b5b6000612f4784828501612ea4565b91505092915050565b600080600060608486031215612f6957612f68612c4e565b5b6000612f7786828701612ea4565b9350506020612f8886828701612ea4565b9250506040612f9986828701612def565b9150509250925092565b612fac81612cdd565b8114612fb757600080fd5b50565b600081359050612fc981612fa3565b92915050565b60008060408385031215612fe657612fe5612c4e565b5b6000612ff485828601612ea4565b925050602061300585828601612fba565b9150509250929050565b600080fd5b600080fd5b7f4e487b7100000000000000000000000000000000000000000000000000000000600052604160045260246000fd5b61305182612d62565b810181811067ffffffffffffffff821117156130705761306f613019565b5b80604052505050565b6000613083612c44565b905061308f8282613048565b919050565b600067ffffffffffffffff8211156130af576130ae613019565b5b6130b882612d62565b9050602081019050919050565b82818337600083830152505050565b60006130e76130e284613094565b613079565b90508281526020810184848401111561310357613102613014565b5b61310e8482856130c5565b509392505050565b600082601f83011261312b5761312a61300f565b5b813561313b8482602086016130d4565b91505092915050565b6000806000806080858703121561315e5761315d612c4e565b5b600061316c87828801612ea4565b945050602061317d87828801612ea4565b935050604061318e87828801612def565b925050606085013567ffffffffffffffff8111156131af576131ae612c53565b5b6131bb87828801613116565b91505092959194509250565b600067ffffffffffffffff8211156131e2576131e1613019565b5b602082029050602081019050919050565b600080fd5b600061320b613206846131c7565b613079565b9050808382526020820190506020840283018581111561322e5761322d6131f3565b5b835b8181101561325757806132438882612ea4565b845260208401935050602081019050613230565b5050509392505050565b600082601f8301126132765761327561300f565b5b81356132868482602086016131f8565b91505092915050565b6000602082840312156132a5576132a4612c4e565b5b600082013567ffffffffffffffff8111156132c3576132c2612c53565b5b6132cf84828501613261565b91505092915050565b600080604083850312156132ef576132ee612c4e565b5b60006132fd85828601612ea4565b925050602061330e85828601612ea4565b9150509250929050565b7f4e487b7100000000000000000000000000000000000000000000000000000000600052602260045260246000fd5b6000600282049050600182168061335f57607f821691505b6020821081141561337357613372613318565b5b50919050565b7f4552433732313a20617070726f76616c20746f2063757272656e74206f776e6560008201527f7200000000000000000000000000000000000000000000000000000000000000602082015250565b60006133d5602183612d1e565b91506133e082613379565b604082019050919050565b60006020820190508181036000830152613404816133c8565b9050919050565b7f4552433732313a20617070726f76652063616c6c6572206973206e6f7420746f60008201527f6b656e206f776e6572206f7220617070726f76656420666f7220616c6c000000602082015250565b6000613467603d83612d1e565b91506134728261340b565b604082019050919050565b600060208201905081810360008301526134968161345a565b9050919050565b7f4552433732313a2063616c6c6572206973206e6f7420746f6b656e206f776e6560008201527f72206f7220617070726f76656400000000000000000000000000000000000000602082015250565b60006134f9602d83612d1e565b91506135048261349d565b604082019050919050565b60006020820190508181036000830152613528816134ec565b9050919050565b7f455243373231456e756d657261626c653a206f776e657220696e646578206f7560008201527f74206f6620626f756e6473000000000000000000000000000000000000000000602082015250565b600061358b602b83612d1e565b91506135968261352f565b604082019050919050565b600060208201905081810360008301526135ba8161357e565b9050919050565b7f616c7265616479206d696e746564000000000000000000000000000000000000600082015250565b60006135f7600e83612d1e565b9150613602826135c1565b602082019050919050565b60006020820190508181036000830152613626816135ea565b9050919050565b7f6e6f206e66742077697468207468697320696400000000000000000000000000600082015250565b6000613663601383612d1e565b915061366e8261362d565b602082019050919050565b6000602082019050818103600083015261369281613656565b9050919050565b7f6d696e7420616c6c6f77616e6365206578636565646564000000000000000000600082015250565b60006136cf601783612d1e565b91506136da82613699565b602082019050919050565b600060208201905081810360008301526136fe816136c2565b9050919050565b7f6e6f742079657420756e6c6f636b656400000000000000000000000000000000600082015250565b600061373b601083612d1e565b915061374682613705565b602082019050919050565b6000602082019050818103600083015261376a8161372e565b9050919050565b600081905092915050565b600061378782612d13565b6137918185613771565b93506137a1818560208601612d2f565b80840191505092915050565b7f2e6a736f6e000000000000000000000000000000000000000000000000000000600082015250565b60006137e3600583613771565b91506137ee826137ad565b600582019050919050565b6000613805828461377c565b9150613810826137d6565b915081905092915050565b7f455243373231456e756d657261626c653a20676c6f62616c20696e646578206f60008201527f7574206f6620626f756e64730000000000000000000000000000000000000000602082015250565b6000613877602c83612d1e565b91506138828261381b565b604082019050919050565b600060208201905081810360008301526138a68161386a565b9050919050565b7f4e487b7100000000000000000000000000000000000000000000000000000000600052603260045260246000fd5b7f4552433732313a20696e76616c696420746f6b656e2049440000000000000000600082015250565b6000613912601883612d1e565b915061391d826138dc565b602082019050919050565b6000602082019050818103600083015261394181613905565b9050919050565b7f4552433732313a2061646472657373207a65726f206973206e6f74206120766160008201527f6c6964206f776e65720000000000000000000000000000000000000000000000602082015250565b60006139a4602983612d1e565b91506139af82613948565b604082019050919050565b600060208201905081810360008301526139d381613997565b9050919050565b7f4e487b7100000000000000000000000000000000000000000000000000000000600052601160045260246000fd5b6000613a1482612dce565b91507fffffffffffffffffffffffffffffffffffffffffffffffffffffffffffffffff821415613a4757613a466139da565b5b600182019050919050565b6000613a5d82612dce565b9150613a6883612dce565b9250827fffffffffffffffffffffffffffffffffffffffffffffffffffffffffffffffff03821115613a9d57613a9c6139da565b5b828201905092915050565b7f4f776e61626c653a206e6577206f776e657220697320746865207a65726f206160008201527f6464726573730000000000000000000000000000000000000000000000000000602082015250565b6000613b04602683612d1e565b9150613b0f82613aa8565b604082019050919050565b60006020820190508181036000830152613b3381613af7565b9050919050565b7f4552433732313a207472616e736665722066726f6d20696e636f72726563742060008201527f6f776e6572000000000000000000000000000000000000000000000000000000602082015250565b6000613b96602583612d1e565b9150613ba182613b3a565b604082019050919050565b60006020820190508181036000830152613bc581613b89565b9050919050565b7f4552433732313a207472616e7366657220746f20746865207a65726f2061646460008201527f7265737300000000000000000000000000000000000000000000000000000000602082015250565b6000613c28602483612d1e565b9150613c3382613bcc565b604082019050919050565b60006020820190508181036000830152613c5781613c1b565b9050919050565b7f4e487b7100000000000000000000000000000000000000000000000000000000600052601260045260246000fd5b7f45524337323155524953746f726167653a2055524920736574206f66206e6f6e60008201527f6578697374656e7420746f6b656e000000000000000000000000000000000000602082015250565b6000613ce9602e83612d1e565b9150613cf482613c8d565b604082019050919050565b60006020820190508181036000830152613d1881613cdc565b9050919050565b7f4f776e61626c653a2063616c6c6572206973206e6f7420746865206f776e6572600082015250565b6000613d55602083612d1e565b9150613d6082613d1f565b602082019050919050565b60006020820190508181036000830152613d8481613d48565b9050919050565b7f4552433732313a20617070726f766520746f2063616c6c657200000000000000600082015250565b6000613dc1601983612d1e565b9150613dcc82613d8b565b602082019050919050565b60006020820190508181036000830152613df081613db4565b9050919050565b7f4552433732313a207472616e7366657220746f206e6f6e20455243373231526560008201527f63656976657220696d706c656d656e7465720000000000000000000000000000602082015250565b6000613e53603283612d1e565b9150613e5e82613df7565b604082019050919050565b60006020820190508181036000830152613e8281613e46565b9050919050565b6000613e95828561377c565b9150613ea1828461377c565b91508190509392505050565b7f5061757361626c653a206e6f7420706175736564000000000000000000000000600082015250565b6000613ee3601483612d1e565b9150613eee82613ead565b602082019050919050565b60006020820190508181036000830152613f1281613ed6565b9050919050565b7f5061757361626c653a2070617573656400000000000000000000000000000000600082015250565b6000613f4f601083612d1e565b9150613f5a82613f19565b602082019050919050565b60006020820190508181036000830152613f7e81613f42565b9050919050565b600081519050919050565b600082825260208201905092915050565b6000613fac82613f85565b613fb68185613f90565b9350613fc6818560208601612d2f565b613fcf81612d62565b840191505092915050565b6000608082019050613fef6000830187612e63565b613ffc6020830186612e63565b6140096040830185612ef9565b818103606083015261401b8184613fa1565b905095945050505050565b60008151905061403581612c84565b92915050565b60006020828403121561405157614050612c4e565b5b600061405f84828501614026565b91505092915050565b7f455243373231456e756d657261626c653a20636f6e736563757469766520747260008201527f616e7366657273206e6f7420737570706f727465640000000000000000000000602082015250565b60006140c4603583612d1e565b91506140cf82614068565b604082019050919050565b600060208201905081810360008301526140f3816140b7565b9050919050565b7f4552433732313a206d696e7420746f20746865207a65726f2061646472657373600082015250565b6000614130602083612d1e565b915061413b826140fa565b602082019050919050565b6000602082019050818103600083015261415f81614123565b9050919050565b7f4552433732313a20746f6b656e20616c7265616479206d696e74656400000000600082015250565b600061419c601c83612d1e565b91506141a782614166565b602082019050919050565b600060208201905081810360008301526141cb8161418f565b9050919050565b60006141dd82612dce565b91506141e883612dce565b9250828210156141fb576141fa6139da565b5b828203905092915050565b7f4e487b7100000000000000000000000000000000000000000000000000000000600052603160045260246000fdfe697066733a2f2f62616679626569676333747278746b676932776979617863656b763666776b6e66636f76337a7432667871677563326e63356a787078696e3437752fa26469706673582212207709465750387b84aa2461d2a9a0cb924490ea860a9fc853788eca4a2cb2666d64736f6c63430008090033",
  "linkReferences": {},
  "deployedLinkReferences": {}
}