{
  "_format": "hh-sol-artifact-1",
  "contractName": "NFKeeTees",
  "sourceName": "contracts/NFKeeTees.sol",
  "abi": [
    {
      "inputs": [
        {
          "internalType": "address[]",
          "name": "_users",
          "type": "address[]"
        }
      ],
      "stateMutability": "nonpayable",
      "type": "constructor"
    },
    {
      "anonymous": false,
      "inputs": [
        {
          "indexed": true,
          "internalType": "address",
          "name": "owner",
          "type": "address"
        },
        {
          "indexed": true,
          "internalType": "address",
          "name": "approved",
          "type": "address"
        },
        {
          "indexed": true,
          "internalType": "uint256",
          "name": "tokenId",
          "type": "uint256"
        }
      ],
      "name": "Approval",
      "type": "event"
    },
    {
      "anonymous": false,
      "inputs": [
        {
          "indexed": true,
          "internalType": "address",
          "name": "owner",
          "type": "address"
        },
        {
          "indexed": true,
          "internalType": "address",
          "name": "operator",
          "type": "address"
        },
        {
          "indexed": false,
          "internalType": "bool",
          "name": "approved",
          "type": "bool"
        }
      ],
      "name": "ApprovalForAll",
      "type": "event"
    },
    {
      "anonymous": false,
      "inputs": [
        {
          "indexed": true,
          "internalType": "address",
          "name": "previousOwner",
          "type": "address"
        },
        {
          "indexed": true,
          "internalType": "address",
          "name": "newOwner",
          "type": "address"
        }
      ],
      "name": "OwnershipTransferred",
      "type": "event"
    },
    {
      "anonymous": false,
      "inputs": [
        {
          "indexed": false,
          "internalType": "address",
          "name": "account",
          "type": "address"
        }
      ],
      "name": "Paused",
      "type": "event"
    },
    {
      "anonymous": false,
      "inputs": [
        {
          "indexed": true,
          "internalType": "address",
          "name": "from",
          "type": "address"
        },
        {
          "indexed": true,
          "internalType": "address",
          "name": "to",
          "type": "address"
        },
        {
          "indexed": true,
          "internalType": "uint256",
          "name": "tokenId",
          "type": "uint256"
        }
      ],
      "name": "Transfer",
      "type": "event"
    },
    {
      "anonymous": false,
      "inputs": [
        {
          "indexed": false,
          "internalType": "address",
          "name": "account",
          "type": "address"
        }
      ],
      "name": "Unpaused",
      "type": "event"
    },
    {
      "inputs": [
        {
          "internalType": "address",
          "name": "to",
          "type": "address"
        },
        {
          "internalType": "uint256",
          "name": "tokenId",
          "type": "uint256"
        }
      ],
      "name": "approve",
      "outputs": [],
      "stateMutability": "nonpayable",
      "type": "function"
    },
    {
      "inputs": [
        {
          "internalType": "address",
          "name": "owner",
          "type": "address"
        }
      ],
      "name": "balanceOf",
      "outputs": [
        {
          "internalType": "uint256",
          "name": "",
          "type": "uint256"
        }
      ],
      "stateMutability": "view",
      "type": "function"
    },
    {
      "inputs": [
        {
          "internalType": "uint256",
          "name": "tokenId",
          "type": "uint256"
        }
      ],
      "name": "getApproved",
      "outputs": [
        {
          "internalType": "address",
          "name": "",
          "type": "address"
        }
      ],
      "stateMutability": "view",
      "type": "function"
    },
    {
      "inputs": [
        {
          "internalType": "address",
          "name": "owner",
          "type": "address"
        },
        {
          "internalType": "address",
          "name": "operator",
          "type": "address"
        }
      ],
      "name": "isApprovedForAll",
      "outputs": [
        {
          "internalType": "bool",
          "name": "",
          "type": "bool"
        }
      ],
      "stateMutability": "view",
      "type": "function"
    },
    {
      "inputs": [],
      "name": "name",
      "outputs": [
        {
          "internalType": "string",
          "name": "",
          "type": "string"
        }
      ],
      "stateMutability": "view",
      "type": "function"
    },
    {
      "inputs": [],
      "name": "owner",
      "outputs": [
        {
          "internalType": "address",
          "name": "",
          "type": "address"
        }
      ],
      "stateMutability": "view",
      "type": "function"
    },
    {
      "inputs": [
        {
          "internalType": "uint256",
          "name": "tokenId",
          "type": "uint256"
        }
      ],
      "name": "ownerOf",
      "outputs": [
        {
          "internalType": "address",
          "name": "",
          "type": "address"
        }
      ],
      "stateMutability": "view",
      "type": "function"
    },
    {
      "inputs": [],
      "name": "pause",
      "outputs": [],
      "stateMutability": "nonpayable",
      "type": "function"
    },
    {
      "inputs": [],
      "name": "paused",
      "outputs": [
        {
          "internalType": "bool",
          "name": "",
          "type": "bool"
        }
      ],
      "stateMutability": "view",
      "type": "function"
    },
    {
      "inputs": [],
      "name": "renounceOwnership",
      "outputs": [],
      "stateMutability": "nonpayable",
      "type": "function"
    },
    {
      "inputs": [
        {
          "internalType": "uint256",
          "name": "tokenId",
          "type": "uint256"
        }
      ],
      "name": "safeMint",
      "outputs": [],
      "stateMutability": "nonpayable",
      "type": "function"
    },
    {
      "inputs": [
        {
          "internalType": "address",
          "name": "from",
          "type": "address"
        },
        {
          "internalType": "address",
          "name": "to",
          "type": "address"
        },
        {
          "internalType": "uint256",
          "name": "tokenId",
          "type": "uint256"
        }
      ],
      "name": "safeTransferFrom",
      "outputs": [],
      "stateMutability": "nonpayable",
      "type": "function"
    },
    {
      "inputs": [
        {
          "internalType": "address",
          "name": "from",
          "type": "address"
        },
        {
          "internalType": "address",
          "name": "to",
          "type": "address"
        },
        {
          "internalType": "uint256",
          "name": "tokenId",
          "type": "uint256"
        },
        {
          "internalType": "bytes",
          "name": "data",
          "type": "bytes"
        }
      ],
      "name": "safeTransferFrom",
      "outputs": [],
      "stateMutability": "nonpayable",
      "type": "function"
    },
    {
      "inputs": [
        {
          "internalType": "address",
          "name": "operator",
          "type": "address"
        },
        {
          "internalType": "bool",
          "name": "approved",
          "type": "bool"
        }
      ],
      "name": "setApprovalForAll",
      "outputs": [],
      "stateMutability": "nonpayable",
      "type": "function"
    },
    {
      "inputs": [],
      "name": "startTime",
      "outputs": [
        {
          "internalType": "uint256",
          "name": "",
          "type": "uint256"
        }
      ],
      "stateMutability": "view",
      "type": "function"
    },
    {
      "inputs": [
        {
          "internalType": "bytes4",
          "name": "interfaceId",
          "type": "bytes4"
        }
      ],
      "name": "supportsInterface",
      "outputs": [
        {
          "internalType": "bool",
          "name": "",
          "type": "bool"
        }
      ],
      "stateMutability": "view",
      "type": "function"
    },
    {
      "inputs": [],
      "name": "symbol",
      "outputs": [
        {
          "internalType": "string",
          "name": "",
          "type": "string"
        }
      ],
      "stateMutability": "view",
      "type": "function"
    },
    {
      "inputs": [
        {
          "internalType": "uint256",
          "name": "index",
          "type": "uint256"
        }
      ],
      "name": "tokenByIndex",
      "outputs": [
        {
          "internalType": "uint256",
          "name": "",
          "type": "uint256"
        }
      ],
      "stateMutability": "view",
      "type": "function"
    },
    {
      "inputs": [
        {
          "internalType": "address",
          "name": "owner",
          "type": "address"
        },
        {
          "internalType": "uint256",
          "name": "index",
          "type": "uint256"
        }
      ],
      "name": "tokenOfOwnerByIndex",
      "outputs": [
        {
          "internalType": "uint256",
          "name": "",
          "type": "uint256"
        }
      ],
      "stateMutability": "view",
      "type": "function"
    },
    {
      "inputs": [
        {
          "internalType": "uint256",
          "name": "tokenId",
          "type": "uint256"
        }
      ],
      "name": "tokenURI",
      "outputs": [
        {
          "internalType": "string",
          "name": "",
          "type": "string"
        }
      ],
      "stateMutability": "view",
      "type": "function"
    },
    {
      "inputs": [],
      "name": "totalSupply",
      "outputs": [
        {
          "internalType": "uint256",
          "name": "",
          "type": "uint256"
        }
      ],
      "stateMutability": "view",
      "type": "function"
    },
    {
      "inputs": [
        {
          "internalType": "address",
          "name": "from",
          "type": "address"
        },
        {
          "internalType": "address",
          "name": "to",
          "type": "address"
        },
        {
          "internalType": "uint256",
          "name": "tokenId",
          "type": "uint256"
        }
      ],
      "name": "transferFrom",
      "outputs": [],
      "stateMutability": "nonpayable",
      "type": "function"
    },
    {
      "inputs": [
        {
          "internalType": "address",
          "name": "newOwner",
          "type": "address"
        }
      ],
      "name": "transferOwnership",
      "outputs": [],
      "stateMutability": "nonpayable",
      "type": "function"
    },
    {
      "inputs": [],
      "name": "unpause",
      "outputs": [],
      "stateMutability": "nonpayable",
      "type": "function"
    },
    {
      "inputs": [
        {
          "internalType": "address",
          "name": "",
          "type": "address"
        }
      ],
      "name": "userStatus",
      "outputs": [
        {
          "internalType": "uint256",
          "name": "",
          "type": "uint256"
        }
      ],
      "stateMutability": "view",
      "type": "function"
    },
    {
      "inputs": [
        {
          "internalType": "uint256",
          "name": "",
          "type": "uint256"
        }
      ],
      "name": "users",
      "outputs": [
        {
          "internalType": "address",
          "name": "",
          "type": "address"
        }
      ],
      "stateMutability": "view",
      "type": "function"
    }
  ],
  "bytecode": "0x60806040523480156200001157600080fd5b506040516200460738038062004607833981810160405281019062000037919062000600565b6040518060400160405280600981526020017f4e464b65655465657300000000000000000000000000000000000000000000008152506040518060400160405280600481526020017f4e464b54000000000000000000000000000000000000000000000000000000008152508160009080519060200190620000bb929190620002d3565b508060019080519060200190620000d4929190620002d3565b5050506000600b60006101000a81548160ff02191690831515021790555062000112620001066200020560201b60201c565b6200020d60201b60201c565b80600d90805190602001906200012a92919062000364565b5042600f819055506000600f5490506000600d80549050905060005b81811015620001fb5782600e6000600d84815481106200016b576200016a62000651565b5b9060005260206000200160009054906101000a900473ffffffffffffffffffffffffffffffffffffffff1673ffffffffffffffffffffffffffffffffffffffff1673ffffffffffffffffffffffffffffffffffffffff16815260200190815260200160002081905550603c83620001e39190620006b9565b92508080620001f29062000716565b91505062000146565b50505050620007c9565b600033905090565b6000600b60019054906101000a900473ffffffffffffffffffffffffffffffffffffffff16905081600b60016101000a81548173ffffffffffffffffffffffffffffffffffffffff021916908373ffffffffffffffffffffffffffffffffffffffff1602179055508173ffffffffffffffffffffffffffffffffffffffff168173ffffffffffffffffffffffffffffffffffffffff167f8be0079c531659141344cd1fd0a4f28419497f9722a3daafe3b4186f6b6457e060405160405180910390a35050565b828054620002e19062000793565b90600052602060002090601f01602090048101928262000305576000855562000351565b82601f106200032057805160ff191683800117855562000351565b8280016001018555821562000351579182015b828111156200035057825182559160200191906001019062000333565b5b509050620003609190620003f3565b5090565b828054828255906000526020600020908101928215620003e0579160200282015b82811115620003df5782518260006101000a81548173ffffffffffffffffffffffffffffffffffffffff021916908373ffffffffffffffffffffffffffffffffffffffff1602179055509160200191906001019062000385565b5b509050620003ef9190620003f3565b5090565b5b808211156200040e576000816000905550600101620003f4565b5090565b6000604051905090565b600080fd5b600080fd5b600080fd5b6000601f19601f8301169050919050565b7f4e487b7100000000000000000000000000000000000000000000000000000000600052604160045260246000fd5b62000476826200042b565b810181811067ffffffffffffffff821117156200049857620004976200043c565b5b80604052505050565b6000620004ad62000412565b9050620004bb82826200046b565b919050565b600067ffffffffffffffff821115620004de57620004dd6200043c565b5b602082029050602081019050919050565b600080fd5b600073ffffffffffffffffffffffffffffffffffffffff82169050919050565b60006200052182620004f4565b9050919050565b620005338162000514565b81146200053f57600080fd5b50565b600081519050620005538162000528565b92915050565b6000620005706200056a84620004c0565b620004a1565b90508083825260208201905060208402830185811115620005965762000595620004ef565b5b835b81811015620005c35780620005ae888262000542565b84526020840193505060208101905062000598565b5050509392505050565b600082601f830112620005e557620005e462000426565b5b8151620005f784826020860162000559565b91505092915050565b6000602082840312156200061957620006186200041c565b5b600082015167ffffffffffffffff8111156200063a576200063962000421565b5b6200064884828501620005cd565b91505092915050565b7f4e487b7100000000000000000000000000000000000000000000000000000000600052603260045260246000fd5b6000819050919050565b7f4e487b7100000000000000000000000000000000000000000000000000000000600052601160045260246000fd5b6000620006c68262000680565b9150620006d38362000680565b9250827fffffffffffffffffffffffffffffffffffffffffffffffffffffffffffffffff038211156200070b576200070a6200068a565b5b828201905092915050565b6000620007238262000680565b91507fffffffffffffffffffffffffffffffffffffffffffffffffffffffffffffffff8214156200075957620007586200068a565b5b600182019050919050565b7f4e487b7100000000000000000000000000000000000000000000000000000000600052602260045260246000fd5b60006002820490506001821680620007ac57607f821691505b60208210811415620007c357620007c262000764565b5b50919050565b613e2e80620007d96000396000f3fe608060405234801561001057600080fd5b506004361061018e5760003560e01c80635c975abb116100de5780638da5cb5b11610097578063b88d4fde11610071578063b88d4fde14610471578063c87b56dd1461048d578063e985e9c5146104bd578063f2fde38b146104ed5761018e565b80638da5cb5b1461041957806395d89b4114610437578063a22cb465146104555761018e565b80635c975abb146103695780636352211e1461038757806370a08231146103b7578063715018a6146103e757806378e97925146103f15780638456cb591461040f5761018e565b806323b872dd1161014b578063365b98b211610125578063365b98b2146102e35780633f4ba83a1461031357806342842e0e1461031d5780634f6ccce7146103395761018e565b806323b872dd1461027b5780632f745c591461029757806331c864e8146102c75761018e565b806301ffc9a71461019357806306fdde03146101c3578063081812fc146101e1578063095ea7b31461021157806318160ddd1461022d578063225d29a11461024b575b600080fd5b6101ad60048036038101906101a8919061298a565b610509565b6040516101ba91906129d2565b60405180910390f35b6101cb61051b565b6040516101d89190612a86565b60405180910390f35b6101fb60048036038101906101f69190612ade565b6105ad565b6040516102089190612b4c565b60405180910390f35b61022b60048036038101906102269190612b93565b6105f3565b005b61023561070b565b6040516102429190612be2565b60405180910390f35b61026560048036038101906102609190612bfd565b610718565b6040516102729190612be2565b60405180910390f35b61029560048036038101906102909190612c2a565b610730565b005b6102b160048036038101906102ac9190612b93565b610790565b6040516102be9190612be2565b60405180910390f35b6102e160048036038101906102dc9190612ade565b610835565b005b6102fd60048036038101906102f89190612ade565b610a3d565b60405161030a9190612b4c565b60405180910390f35b61031b610a7c565b005b61033760048036038101906103329190612c2a565b610a8e565b005b610353600480360381019061034e9190612ade565b610aae565b6040516103609190612be2565b60405180910390f35b610371610b1f565b60405161037e91906129d2565b60405180910390f35b6103a1600480360381019061039c9190612ade565b610b36565b6040516103ae9190612b4c565b60405180910390f35b6103d160048036038101906103cc9190612bfd565b610bbd565b6040516103de9190612be2565b60405180910390f35b6103ef610c75565b005b6103f9610c89565b6040516104069190612be2565b60405180910390f35b610417610c8f565b005b610421610ca1565b60405161042e9190612b4c565b60405180910390f35b61043f610ccb565b60405161044c9190612a86565b60405180910390f35b61046f600480360381019061046a9190612ca9565b610d5d565b005b61048b60048036038101906104869190612e1e565b610d73565b005b6104a760048036038101906104a29190612ade565b610dd5565b6040516104b49190612a86565b60405180910390f35b6104d760048036038101906104d29190612ea1565b610de7565b6040516104e491906129d2565b60405180910390f35b61050760048036038101906105029190612bfd565b610e7b565b005b600061051482610eff565b9050919050565b60606000805461052a90612f10565b80601f016020809104026020016040519081016040528092919081815260200182805461055690612f10565b80156105a35780601f10610578576101008083540402835291602001916105a3565b820191906000526020600020905b81548152906001019060200180831161058657829003601f168201915b5050505050905090565b60006105b882610f79565b6004600083815260200190815260200160002060009054906101000a900473ffffffffffffffffffffffffffffffffffffffff169050919050565b60006105fe82610b36565b90508073ffffffffffffffffffffffffffffffffffffffff168373ffffffffffffffffffffffffffffffffffffffff16141561066f576040517f08c379a000000000000000000000000000000000000000000000000000000000815260040161066690612fb4565b60405180910390fd5b8073ffffffffffffffffffffffffffffffffffffffff1661068e610fc4565b73ffffffffffffffffffffffffffffffffffffffff1614806106bd57506106bc816106b7610fc4565b610de7565b5b6106fc576040517f08c379a00000000000000000000000000000000000000000000000000000000081526004016106f390613046565b60405180910390fd5b6107068383610fcc565b505050565b6000600880549050905090565b600e6020528060005260406000206000915090505481565b61074161073b610fc4565b82611085565b610780576040517f08c379a0000000000000000000000000000000000000000000000000000000008152600401610777906130d8565b60405180910390fd5b61078b83838361111a565b505050565b600061079b83610bbd565b82106107dc576040517f08c379a00000000000000000000000000000000000000000000000000000000081526004016107d39061316a565b60405180910390fd5b600660008473ffffffffffffffffffffffffffffffffffffffff1673ffffffffffffffffffffffffffffffffffffffff168152602001908152602001600020600083815260200190815260200160002054905092915050565b600073ffffffffffffffffffffffffffffffffffffffff1661085682611414565b73ffffffffffffffffffffffffffffffffffffffff16146108ac576040517f08c379a00000000000000000000000000000000000000000000000000000000081526004016108a3906131d6565b60405180910390fd5b600d81106108ef576040517f08c379a00000000000000000000000000000000000000000000000000000000081526004016108e690613242565b60405180910390fd5b6000600e60003373ffffffffffffffffffffffffffffffffffffffff1673ffffffffffffffffffffffffffffffffffffffff16815260200190815260200160002054905060018111610976576040517f08c379a000000000000000000000000000000000000000000000000000000000815260040161096d906132ae565b60405180910390fd5b428111156109b9576040517f08c379a00000000000000000000000000000000000000000000000000000000081526004016109b09061331a565b60405180910390fd5b6001600e60003373ffffffffffffffffffffffffffffffffffffffff1673ffffffffffffffffffffffffffffffffffffffff16815260200190815260200160002081905550610a083383611451565b610a3982610a158461146f565b604051602001610a2591906133c2565b604051602081830303815290604052611547565b5050565b600d8181548110610a4d57600080fd5b906000526020600020016000915054906101000a900473ffffffffffffffffffffffffffffffffffffffff1681565b610a846115bb565b610a8c611639565b565b610aa983838360405180602001604052806000815250610d73565b505050565b6000610ab861070b565b8210610af9576040517f08c379a0000000000000000000000000000000000000000000000000000000008152600401610af090613456565b60405180910390fd5b60088281548110610b0d57610b0c613476565b5b90600052602060002001549050919050565b6000600b60009054906101000a900460ff16905090565b600080610b4283611414565b9050600073ffffffffffffffffffffffffffffffffffffffff168173ffffffffffffffffffffffffffffffffffffffff161415610bb4576040517f08c379a0000000000000000000000000000000000000000000000000000000008152600401610bab906134f1565b60405180910390fd5b80915050919050565b60008073ffffffffffffffffffffffffffffffffffffffff168273ffffffffffffffffffffffffffffffffffffffff161415610c2e576040517f08c379a0000000000000000000000000000000000000000000000000000000008152600401610c2590613583565b60405180910390fd5b600360008373ffffffffffffffffffffffffffffffffffffffff1673ffffffffffffffffffffffffffffffffffffffff168152602001908152602001600020549050919050565b610c7d6115bb565b610c87600061169c565b565b600f5481565b610c976115bb565b610c9f611762565b565b6000600b60019054906101000a900473ffffffffffffffffffffffffffffffffffffffff16905090565b606060018054610cda90612f10565b80601f0160208091040260200160405190810160405280929190818152602001828054610d0690612f10565b8015610d535780601f10610d2857610100808354040283529160200191610d53565b820191906000526020600020905b815481529060010190602001808311610d3657829003601f168201915b5050505050905090565b610d6f610d68610fc4565b83836117c5565b5050565b610d84610d7e610fc4565b83611085565b610dc3576040517f08c379a0000000000000000000000000000000000000000000000000000000008152600401610dba906130d8565b60405180910390fd5b610dcf84848484611932565b50505050565b6060610de08261198e565b9050919050565b6000600560008473ffffffffffffffffffffffffffffffffffffffff1673ffffffffffffffffffffffffffffffffffffffff16815260200190815260200160002060008373ffffffffffffffffffffffffffffffffffffffff1673ffffffffffffffffffffffffffffffffffffffff16815260200190815260200160002060009054906101000a900460ff16905092915050565b610e836115bb565b600073ffffffffffffffffffffffffffffffffffffffff168173ffffffffffffffffffffffffffffffffffffffff161415610ef3576040517f08c379a0000000000000000000000000000000000000000000000000000000008152600401610eea90613615565b60405180910390fd5b610efc8161169c565b50565b60007f780e9d63000000000000000000000000000000000000000000000000000000007bffffffffffffffffffffffffffffffffffffffffffffffffffffffff1916827bffffffffffffffffffffffffffffffffffffffffffffffffffffffff19161480610f725750610f7182611aa1565b5b9050919050565b610f8281611b83565b610fc1576040517f08c379a0000000000000000000000000000000000000000000000000000000008152600401610fb8906134f1565b60405180910390fd5b50565b600033905090565b816004600083815260200190815260200160002060006101000a81548173ffffffffffffffffffffffffffffffffffffffff021916908373ffffffffffffffffffffffffffffffffffffffff160217905550808273ffffffffffffffffffffffffffffffffffffffff1661103f83610b36565b73ffffffffffffffffffffffffffffffffffffffff167f8c5be1e5ebec7d5bd14f71427d1e84f3dd0314c0f7b2291e5b200ac8c7c3b92560405160405180910390a45050565b60008061109183610b36565b90508073ffffffffffffffffffffffffffffffffffffffff168473ffffffffffffffffffffffffffffffffffffffff1614806110d357506110d28185610de7565b5b8061111157508373ffffffffffffffffffffffffffffffffffffffff166110f9846105ad565b73ffffffffffffffffffffffffffffffffffffffff16145b91505092915050565b8273ffffffffffffffffffffffffffffffffffffffff1661113a82610b36565b73ffffffffffffffffffffffffffffffffffffffff1614611190576040517f08c379a0000000000000000000000000000000000000000000000000000000008152600401611187906136a7565b60405180910390fd5b600073ffffffffffffffffffffffffffffffffffffffff168273ffffffffffffffffffffffffffffffffffffffff161415611200576040517f08c379a00000000000000000000000000000000000000000000000000000000081526004016111f790613739565b60405180910390fd5b61120d8383836001611bc4565b8273ffffffffffffffffffffffffffffffffffffffff1661122d82610b36565b73ffffffffffffffffffffffffffffffffffffffff1614611283576040517f08c379a000000000000000000000000000000000000000000000000000000000815260040161127a906136a7565b60405180910390fd5b6004600082815260200190815260200160002060006101000a81549073ffffffffffffffffffffffffffffffffffffffff02191690556001600360008573ffffffffffffffffffffffffffffffffffffffff1673ffffffffffffffffffffffffffffffffffffffff168152602001908152602001600020600082825403925050819055506001600360008473ffffffffffffffffffffffffffffffffffffffff1673ffffffffffffffffffffffffffffffffffffffff16815260200190815260200160002060008282540192505081905550816002600083815260200190815260200160002060006101000a81548173ffffffffffffffffffffffffffffffffffffffff021916908373ffffffffffffffffffffffffffffffffffffffff160217905550808273ffffffffffffffffffffffffffffffffffffffff168473ffffffffffffffffffffffffffffffffffffffff167fddf252ad1be2c89b69c2b068fc378daa952ba7f163c4a11628f55a4df523b3ef60405160405180910390a461140f8383836001611bde565b505050565b60006002600083815260200190815260200160002060009054906101000a900473ffffffffffffffffffffffffffffffffffffffff169050919050565b61146b828260405180602001604052806000815250611be4565b5050565b60606000600161147e84611c3f565b01905060008167ffffffffffffffff81111561149d5761149c612cf3565b5b6040519080825280601f01601f1916602001820160405280156114cf5781602001600182028036833780820191505090505b509050600082602001820190505b60011561153c578080600190039150507f3031323334353637383961626364656600000000000000000000000000000000600a86061a8153600a858161152657611525613759565b5b04945060008514156115375761153c565b6114dd565b819350505050919050565b61155082611b83565b61158f576040517f08c379a0000000000000000000000000000000000000000000000000000000008152600401611586906137fa565b60405180910390fd5b80600a600084815260200190815260200160002090805190602001906115b692919061287b565b505050565b6115c3610fc4565b73ffffffffffffffffffffffffffffffffffffffff166115e1610ca1565b73ffffffffffffffffffffffffffffffffffffffff1614611637576040517f08c379a000000000000000000000000000000000000000000000000000000000815260040161162e90613866565b60405180910390fd5b565b611641611d92565b6000600b60006101000a81548160ff0219169083151502179055507f5db9ee0a495bf2e6ff9c91a7834c1ba4fdd244a5e8aa4e537bd38aeae4b073aa611685610fc4565b6040516116929190612b4c565b60405180910390a1565b6000600b60019054906101000a900473ffffffffffffffffffffffffffffffffffffffff16905081600b60016101000a81548173ffffffffffffffffffffffffffffffffffffffff021916908373ffffffffffffffffffffffffffffffffffffffff1602179055508173ffffffffffffffffffffffffffffffffffffffff168173ffffffffffffffffffffffffffffffffffffffff167f8be0079c531659141344cd1fd0a4f28419497f9722a3daafe3b4186f6b6457e060405160405180910390a35050565b61176a611ddb565b6001600b60006101000a81548160ff0219169083151502179055507f62e78cea01bee320cd4e420270b5ea74000d11b0c9f74754ebdbfc544b05a2586117ae610fc4565b6040516117bb9190612b4c565b60405180910390a1565b8173ffffffffffffffffffffffffffffffffffffffff168373ffffffffffffffffffffffffffffffffffffffff161415611834576040517f08c379a000000000000000000000000000000000000000000000000000000000815260040161182b906138d2565b60405180910390fd5b80600560008573ffffffffffffffffffffffffffffffffffffffff1673ffffffffffffffffffffffffffffffffffffffff16815260200190815260200160002060008473ffffffffffffffffffffffffffffffffffffffff1673ffffffffffffffffffffffffffffffffffffffff16815260200190815260200160002060006101000a81548160ff0219169083151502179055508173ffffffffffffffffffffffffffffffffffffffff168373ffffffffffffffffffffffffffffffffffffffff167f17307eab39ab6107e8899845ad3d59bd9653f200f220920489ca2b5937696c318360405161192591906129d2565b60405180910390a3505050565b61193d84848461111a565b61194984848484611e25565b611988576040517f08c379a000000000000000000000000000000000000000000000000000000000815260040161197f90613964565b60405180910390fd5b50505050565b606061199982610f79565b6000600a600084815260200190815260200160002080546119b990612f10565b80601f01602080910402602001604051908101604052809291908181526020018280546119e590612f10565b8015611a325780601f10611a0757610100808354040283529160200191611a32565b820191906000526020600020905b815481529060010190602001808311611a1557829003601f168201915b505050505090506000611a43611fbc565b9050600081511415611a59578192505050611a9c565b600082511115611a8e578082604051602001611a76929190613984565b60405160208183030381529060405292505050611a9c565b611a9784611fdc565b925050505b919050565b60007f80ac58cd000000000000000000000000000000000000000000000000000000007bffffffffffffffffffffffffffffffffffffffffffffffffffffffff1916827bffffffffffffffffffffffffffffffffffffffffffffffffffffffff19161480611b6c57507f5b5e139f000000000000000000000000000000000000000000000000000000007bffffffffffffffffffffffffffffffffffffffffffffffffffffffff1916827bffffffffffffffffffffffffffffffffffffffffffffffffffffffff1916145b80611b7c5750611b7b82612044565b5b9050919050565b60008073ffffffffffffffffffffffffffffffffffffffff16611ba583611414565b73ffffffffffffffffffffffffffffffffffffffff1614159050919050565b611bcc611ddb565b611bd8848484846120ae565b50505050565b50505050565b611bee838361220e565b611bfb6000848484611e25565b611c3a576040517f08c379a0000000000000000000000000000000000000000000000000000000008152600401611c3190613964565b60405180910390fd5b505050565b600080600090507a184f03e93ff9f4daa797ed6e38ed64bf6a1f0100000000000000008310611c9d577a184f03e93ff9f4daa797ed6e38ed64bf6a1f0100000000000000008381611c9357611c92613759565b5b0492506040810190505b6d04ee2d6d415b85acef81000000008310611cda576d04ee2d6d415b85acef81000000008381611cd057611ccf613759565b5b0492506020810190505b662386f26fc100008310611d0957662386f26fc100008381611cff57611cfe613759565b5b0492506010810190505b6305f5e1008310611d32576305f5e1008381611d2857611d27613759565b5b0492506008810190505b6127108310611d57576127108381611d4d57611d4c613759565b5b0492506004810190505b60648310611d7a5760648381611d7057611d6f613759565b5b0492506002810190505b600a8310611d89576001810190505b80915050919050565b611d9a610b1f565b611dd9576040517f08c379a0000000000000000000000000000000000000000000000000000000008152600401611dd0906139f4565b60405180910390fd5b565b611de3610b1f565b15611e23576040517f08c379a0000000000000000000000000000000000000000000000000000000008152600401611e1a90613a60565b60405180910390fd5b565b6000611e468473ffffffffffffffffffffffffffffffffffffffff1661242c565b15611faf578373ffffffffffffffffffffffffffffffffffffffff1663150b7a02611e6f610fc4565b8786866040518563ffffffff1660e01b8152600401611e919493929190613ad5565b602060405180830381600087803b158015611eab57600080fd5b505af1925050508015611edc57506040513d601f19601f82011682018060405250810190611ed99190613b36565b60015b611f5f573d8060008114611f0c576040519150601f19603f3d011682016040523d82523d6000602084013e611f11565b606091505b50600081511415611f57576040517f08c379a0000000000000000000000000000000000000000000000000000000008152600401611f4e90613964565b60405180910390fd5b805181602001fd5b63150b7a0260e01b7bffffffffffffffffffffffffffffffffffffffffffffffffffffffff1916817bffffffffffffffffffffffffffffffffffffffffffffffffffffffff191614915050611fb4565b600190505b949350505050565b6060604051806080016040528060438152602001613db660439139905090565b6060611fe782610f79565b6000611ff1611fbc565b90506000815111612011576040518060200160405280600081525061203c565b8061201b8461146f565b60405160200161202c929190613984565b6040516020818303038152906040525b915050919050565b60007f01ffc9a7000000000000000000000000000000000000000000000000000000007bffffffffffffffffffffffffffffffffffffffffffffffffffffffff1916827bffffffffffffffffffffffffffffffffffffffffffffffffffffffff1916149050919050565b6120ba8484848461244f565b60018111156120fe576040517f08c379a00000000000000000000000000000000000000000000000000000000081526004016120f590613bd5565b60405180910390fd5b6000829050600073ffffffffffffffffffffffffffffffffffffffff168573ffffffffffffffffffffffffffffffffffffffff1614156121465761214181612575565b612185565b8373ffffffffffffffffffffffffffffffffffffffff168573ffffffffffffffffffffffffffffffffffffffff16146121845761218385826125be565b5b5b600073ffffffffffffffffffffffffffffffffffffffff168473ffffffffffffffffffffffffffffffffffffffff1614156121c8576121c38161272b565b612207565b8473ffffffffffffffffffffffffffffffffffffffff168473ffffffffffffffffffffffffffffffffffffffff16146122065761220584826127fc565b5b5b5050505050565b600073ffffffffffffffffffffffffffffffffffffffff168273ffffffffffffffffffffffffffffffffffffffff16141561227e576040517f08c379a000000000000000000000000000000000000000000000000000000000815260040161227590613c41565b60405180910390fd5b61228781611b83565b156122c7576040517f08c379a00000000000000000000000000000000000000000000000000000000081526004016122be90613cad565b60405180910390fd5b6122d5600083836001611bc4565b6122de81611b83565b1561231e576040517f08c379a000000000000000000000000000000000000000000000000000000000815260040161231590613cad565b60405180910390fd5b6001600360008473ffffffffffffffffffffffffffffffffffffffff1673ffffffffffffffffffffffffffffffffffffffff16815260200190815260200160002060008282540192505081905550816002600083815260200190815260200160002060006101000a81548173ffffffffffffffffffffffffffffffffffffffff021916908373ffffffffffffffffffffffffffffffffffffffff160217905550808273ffffffffffffffffffffffffffffffffffffffff16600073ffffffffffffffffffffffffffffffffffffffff167fddf252ad1be2c89b69c2b068fc378daa952ba7f163c4a11628f55a4df523b3ef60405160405180910390a4612428600083836001611bde565b5050565b6000808273ffffffffffffffffffffffffffffffffffffffff163b119050919050565b600181111561256f57600073ffffffffffffffffffffffffffffffffffffffff168473ffffffffffffffffffffffffffffffffffffffff16146124e35780600360008673ffffffffffffffffffffffffffffffffffffffff1673ffffffffffffffffffffffffffffffffffffffff16815260200190815260200160002060008282546124db9190613cfc565b925050819055505b600073ffffffffffffffffffffffffffffffffffffffff168373ffffffffffffffffffffffffffffffffffffffff161461256e5780600360008573ffffffffffffffffffffffffffffffffffffffff1673ffffffffffffffffffffffffffffffffffffffff16815260200190815260200160002060008282546125669190613d30565b925050819055505b5b50505050565b6008805490506009600083815260200190815260200160002081905550600881908060018154018082558091505060019003906000526020600020016000909190919091505550565b600060016125cb84610bbd565b6125d59190613cfc565b90506000600760008481526020019081526020016000205490508181146126ba576000600660008673ffffffffffffffffffffffffffffffffffffffff1673ffffffffffffffffffffffffffffffffffffffff168152602001908152602001600020600084815260200190815260200160002054905080600660008773ffffffffffffffffffffffffffffffffffffffff1673ffffffffffffffffffffffffffffffffffffffff168152602001908152602001600020600084815260200190815260200160002081905550816007600083815260200190815260200160002081905550505b6007600084815260200190815260200160002060009055600660008573ffffffffffffffffffffffffffffffffffffffff1673ffffffffffffffffffffffffffffffffffffffff16815260200190815260200160002060008381526020019081526020016000206000905550505050565b6000600160088054905061273f9190613cfc565b905060006009600084815260200190815260200160002054905060006008838154811061276f5761276e613476565b5b90600052602060002001549050806008838154811061279157612790613476565b5b9060005260206000200181905550816009600083815260200190815260200160002081905550600960008581526020019081526020016000206000905560088054806127e0576127df613d86565b5b6001900381819060005260206000200160009055905550505050565b600061280783610bbd565b905081600660008573ffffffffffffffffffffffffffffffffffffffff1673ffffffffffffffffffffffffffffffffffffffff168152602001908152602001600020600083815260200190815260200160002081905550806007600084815260200190815260200160002081905550505050565b82805461288790612f10565b90600052602060002090601f0160209004810192826128a957600085556128f0565b82601f106128c257805160ff19168380011785556128f0565b828001600101855582156128f0579182015b828111156128ef5782518255916020019190600101906128d4565b5b5090506128fd9190612901565b5090565b5b8082111561291a576000816000905550600101612902565b5090565b6000604051905090565b600080fd5b600080fd5b60007fffffffff0000000000000000000000000000000000000000000000000000000082169050919050565b61296781612932565b811461297257600080fd5b50565b6000813590506129848161295e565b92915050565b6000602082840312156129a05761299f612928565b5b60006129ae84828501612975565b91505092915050565b60008115159050919050565b6129cc816129b7565b82525050565b60006020820190506129e760008301846129c3565b92915050565b600081519050919050565b600082825260208201905092915050565b60005b83811015612a27578082015181840152602081019050612a0c565b83811115612a36576000848401525b50505050565b6000601f19601f8301169050919050565b6000612a58826129ed565b612a6281856129f8565b9350612a72818560208601612a09565b612a7b81612a3c565b840191505092915050565b60006020820190508181036000830152612aa08184612a4d565b905092915050565b6000819050919050565b612abb81612aa8565b8114612ac657600080fd5b50565b600081359050612ad881612ab2565b92915050565b600060208284031215612af457612af3612928565b5b6000612b0284828501612ac9565b91505092915050565b600073ffffffffffffffffffffffffffffffffffffffff82169050919050565b6000612b3682612b0b565b9050919050565b612b4681612b2b565b82525050565b6000602082019050612b616000830184612b3d565b92915050565b612b7081612b2b565b8114612b7b57600080fd5b50565b600081359050612b8d81612b67565b92915050565b60008060408385031215612baa57612ba9612928565b5b6000612bb885828601612b7e565b9250506020612bc985828601612ac9565b9150509250929050565b612bdc81612aa8565b82525050565b6000602082019050612bf76000830184612bd3565b92915050565b600060208284031215612c1357612c12612928565b5b6000612c2184828501612b7e565b91505092915050565b600080600060608486031215612c4357612c42612928565b5b6000612c5186828701612b7e565b9350506020612c6286828701612b7e565b9250506040612c7386828701612ac9565b9150509250925092565b612c86816129b7565b8114612c9157600080fd5b50565b600081359050612ca381612c7d565b92915050565b60008060408385031215612cc057612cbf612928565b5b6000612cce85828601612b7e565b9250506020612cdf85828601612c94565b9150509250929050565b600080fd5b600080fd5b7f4e487b7100000000000000000000000000000000000000000000000000000000600052604160045260246000fd5b612d2b82612a3c565b810181811067ffffffffffffffff82111715612d4a57612d49612cf3565b5b80604052505050565b6000612d5d61291e565b9050612d698282612d22565b919050565b600067ffffffffffffffff821115612d8957612d88612cf3565b5b612d9282612a3c565b9050602081019050919050565b82818337600083830152505050565b6000612dc1612dbc84612d6e565b612d53565b905082815260208101848484011115612ddd57612ddc612cee565b5b612de8848285612d9f565b509392505050565b600082601f830112612e0557612e04612ce9565b5b8135612e15848260208601612dae565b91505092915050565b60008060008060808587031215612e3857612e37612928565b5b6000612e4687828801612b7e565b9450506020612e5787828801612b7e565b9350506040612e6887828801612ac9565b925050606085013567ffffffffffffffff811115612e8957612e8861292d565b5b612e9587828801612df0565b91505092959194509250565b60008060408385031215612eb857612eb7612928565b5b6000612ec685828601612b7e565b9250506020612ed785828601612b7e565b9150509250929050565b7f4e487b7100000000000000000000000000000000000000000000000000000000600052602260045260246000fd5b60006002820490506001821680612f2857607f821691505b60208210811415612f3c57612f3b612ee1565b5b50919050565b7f4552433732313a20617070726f76616c20746f2063757272656e74206f776e6560008201527f7200000000000000000000000000000000000000000000000000000000000000602082015250565b6000612f9e6021836129f8565b9150612fa982612f42565b604082019050919050565b60006020820190508181036000830152612fcd81612f91565b9050919050565b7f4552433732313a20617070726f76652063616c6c6572206973206e6f7420746f60008201527f6b656e206f776e6572206f7220617070726f76656420666f7220616c6c000000602082015250565b6000613030603d836129f8565b915061303b82612fd4565b604082019050919050565b6000602082019050818103600083015261305f81613023565b9050919050565b7f4552433732313a2063616c6c6572206973206e6f7420746f6b656e206f776e6560008201527f72206f7220617070726f76656400000000000000000000000000000000000000602082015250565b60006130c2602d836129f8565b91506130cd82613066565b604082019050919050565b600060208201905081810360008301526130f1816130b5565b9050919050565b7f455243373231456e756d657261626c653a206f776e657220696e646578206f7560008201527f74206f6620626f756e6473000000000000000000000000000000000000000000602082015250565b6000613154602b836129f8565b915061315f826130f8565b604082019050919050565b6000602082019050818103600083015261318381613147565b9050919050565b7f616c7265616479206d696e746564000000000000000000000000000000000000600082015250565b60006131c0600e836129f8565b91506131cb8261318a565b602082019050919050565b600060208201905081810360008301526131ef816131b3565b9050919050565b7f6e6f206e66742077697468207468697320696400000000000000000000000000600082015250565b600061322c6013836129f8565b9150613237826131f6565b602082019050919050565b6000602082019050818103600083015261325b8161321f565b9050919050565b7f6d696e7420616c6c6f77616e6365206578636565646564000000000000000000600082015250565b60006132986017836129f8565b91506132a382613262565b602082019050919050565b600060208201905081810360008301526132c78161328b565b9050919050565b7f6e6f742079657420756e6c6f636b656400000000000000000000000000000000600082015250565b60006133046010836129f8565b915061330f826132ce565b602082019050919050565b60006020820190508181036000830152613333816132f7565b9050919050565b600081905092915050565b6000613350826129ed565b61335a818561333a565b935061336a818560208601612a09565b80840191505092915050565b7f2e6a736f6e000000000000000000000000000000000000000000000000000000600082015250565b60006133ac60058361333a565b91506133b782613376565b600582019050919050565b60006133ce8284613345565b91506133d98261339f565b915081905092915050565b7f455243373231456e756d657261626c653a20676c6f62616c20696e646578206f60008201527f7574206f6620626f756e64730000000000000000000000000000000000000000602082015250565b6000613440602c836129f8565b915061344b826133e4565b604082019050919050565b6000602082019050818103600083015261346f81613433565b9050919050565b7f4e487b7100000000000000000000000000000000000000000000000000000000600052603260045260246000fd5b7f4552433732313a20696e76616c696420746f6b656e2049440000000000000000600082015250565b60006134db6018836129f8565b91506134e6826134a5565b602082019050919050565b6000602082019050818103600083015261350a816134ce565b9050919050565b7f4552433732313a2061646472657373207a65726f206973206e6f74206120766160008201527f6c6964206f776e65720000000000000000000000000000000000000000000000602082015250565b600061356d6029836129f8565b915061357882613511565b604082019050919050565b6000602082019050818103600083015261359c81613560565b9050919050565b7f4f776e61626c653a206e6577206f776e657220697320746865207a65726f206160008201527f6464726573730000000000000000000000000000000000000000000000000000602082015250565b60006135ff6026836129f8565b915061360a826135a3565b604082019050919050565b6000602082019050818103600083015261362e816135f2565b9050919050565b7f4552433732313a207472616e736665722066726f6d20696e636f72726563742060008201527f6f776e6572000000000000000000000000000000000000000000000000000000602082015250565b60006136916025836129f8565b915061369c82613635565b604082019050919050565b600060208201905081810360008301526136c081613684565b9050919050565b7f4552433732313a207472616e7366657220746f20746865207a65726f2061646460008201527f7265737300000000000000000000000000000000000000000000000000000000602082015250565b60006137236024836129f8565b915061372e826136c7565b604082019050919050565b6000602082019050818103600083015261375281613716565b9050919050565b7f4e487b7100000000000000000000000000000000000000000000000000000000600052601260045260246000fd5b7f45524337323155524953746f726167653a2055524920736574206f66206e6f6e60008201527f6578697374656e7420746f6b656e000000000000000000000000000000000000602082015250565b60006137e4602e836129f8565b91506137ef82613788565b604082019050919050565b60006020820190508181036000830152613813816137d7565b9050919050565b7f4f776e61626c653a2063616c6c6572206973206e6f7420746865206f776e6572600082015250565b60006138506020836129f8565b915061385b8261381a565b602082019050919050565b6000602082019050818103600083015261387f81613843565b9050919050565b7f4552433732313a20617070726f766520746f2063616c6c657200000000000000600082015250565b60006138bc6019836129f8565b91506138c782613886565b602082019050919050565b600060208201905081810360008301526138eb816138af565b9050919050565b7f4552433732313a207472616e7366657220746f206e6f6e20455243373231526560008201527f63656976657220696d706c656d656e7465720000000000000000000000000000602082015250565b600061394e6032836129f8565b9150613959826138f2565b604082019050919050565b6000602082019050818103600083015261397d81613941565b9050919050565b60006139908285613345565b915061399c8284613345565b91508190509392505050565b7f5061757361626c653a206e6f7420706175736564000000000000000000000000600082015250565b60006139de6014836129f8565b91506139e9826139a8565b602082019050919050565b60006020820190508181036000830152613a0d816139d1565b9050919050565b7f5061757361626c653a2070617573656400000000000000000000000000000000600082015250565b6000613a4a6010836129f8565b9150613a5582613a14565b602082019050919050565b60006020820190508181036000830152613a7981613a3d565b9050919050565b600081519050919050565b600082825260208201905092915050565b6000613aa782613a80565b613ab18185613a8b565b9350613ac1818560208601612a09565b613aca81612a3c565b840191505092915050565b6000608082019050613aea6000830187612b3d565b613af76020830186612b3d565b613b046040830185612bd3565b8181036060830152613b168184613a9c565b905095945050505050565b600081519050613b308161295e565b92915050565b600060208284031215613b4c57613b4b612928565b5b6000613b5a84828501613b21565b91505092915050565b7f455243373231456e756d657261626c653a20636f6e736563757469766520747260008201527f616e7366657273206e6f7420737570706f727465640000000000000000000000602082015250565b6000613bbf6035836129f8565b9150613bca82613b63565b604082019050919050565b60006020820190508181036000830152613bee81613bb2565b9050919050565b7f4552433732313a206d696e7420746f20746865207a65726f2061646472657373600082015250565b6000613c2b6020836129f8565b9150613c3682613bf5565b602082019050919050565b60006020820190508181036000830152613c5a81613c1e565b9050919050565b7f4552433732313a20746f6b656e20616c7265616479206d696e74656400000000600082015250565b6000613c97601c836129f8565b9150613ca282613c61565b602082019050919050565b60006020820190508181036000830152613cc681613c8a565b9050919050565b7f4e487b7100000000000000000000000000000000000000000000000000000000600052601160045260246000fd5b6000613d0782612aa8565b9150613d1283612aa8565b925082821015613d2557613d24613ccd565b5b828203905092915050565b6000613d3b82612aa8565b9150613d4683612aa8565b9250827fffffffffffffffffffffffffffffffffffffffffffffffffffffffffffffffff03821115613d7b57613d7a613ccd565b5b828201905092915050565b7f4e487b7100000000000000000000000000000000000000000000000000000000600052603160045260246000fdfe697066733a2f2f62616679626569676333747278746b676932776979617863656b763666776b6e66636f76337a7432667871677563326e63356a787078696e3437752fa26469706673582212202574dd8670867b0159b8124ed929447bc015bfdb24cf7939480d5fa325ed7bf564736f6c63430008090033",
  "linkReferences": {},
  "deployedLinkReferences": {}
}